{
  "_format": "hh-sol-artifact-1",
  "contractName": "TestCarsNFT",
  "sourceName": "contracts/TestCarsNFT.sol",
  "abi": [
    {
      "inputs": [],
      "stateMutability": "nonpayable",
      "type": "constructor"
    },
    {
      "anonymous": false,
      "inputs": [
        {
          "indexed": true,
          "internalType": "address",
          "name": "owner",
          "type": "address"
        },
        {
          "indexed": true,
          "internalType": "address",
          "name": "approved",
          "type": "address"
        },
        {
          "indexed": true,
          "internalType": "uint256",
          "name": "tokenId",
          "type": "uint256"
        }
      ],
      "name": "Approval",
      "type": "event"
    },
    {
      "anonymous": false,
      "inputs": [
        {
          "indexed": true,
          "internalType": "address",
          "name": "owner",
          "type": "address"
        },
        {
          "indexed": true,
          "internalType": "address",
          "name": "operator",
          "type": "address"
        },
        {
          "indexed": false,
          "internalType": "bool",
          "name": "approved",
          "type": "bool"
        }
      ],
      "name": "ApprovalForAll",
      "type": "event"
    },
    {
      "anonymous": false,
      "inputs": [
        {
          "indexed": true,
          "internalType": "address",
          "name": "from",
          "type": "address"
        },
        {
          "indexed": true,
          "internalType": "address",
          "name": "to",
          "type": "address"
        },
        {
          "indexed": true,
          "internalType": "uint256",
          "name": "tokenId",
          "type": "uint256"
        }
      ],
      "name": "Transfer",
      "type": "event"
    },
    {
      "inputs": [
        {
          "internalType": "address",
          "name": "to",
          "type": "address"
        },
        {
          "internalType": "uint256",
          "name": "tokenId",
          "type": "uint256"
        }
      ],
      "name": "approve",
      "outputs": [],
      "stateMutability": "nonpayable",
      "type": "function"
    },
    {
      "inputs": [
        {
          "internalType": "address",
          "name": "owner",
          "type": "address"
        }
      ],
      "name": "balanceOf",
      "outputs": [
        {
          "internalType": "uint256",
          "name": "",
          "type": "uint256"
        }
      ],
      "stateMutability": "view",
      "type": "function"
    },
    {
      "inputs": [
        {
          "internalType": "uint256",
          "name": "tokenId",
          "type": "uint256"
        }
      ],
      "name": "getApproved",
      "outputs": [
        {
          "internalType": "address",
          "name": "",
          "type": "address"
        }
      ],
      "stateMutability": "view",
      "type": "function"
    },
    {
      "inputs": [
        {
          "internalType": "address",
          "name": "owner",
          "type": "address"
        },
        {
          "internalType": "address",
          "name": "operator",
          "type": "address"
        }
      ],
      "name": "isApprovedForAll",
      "outputs": [
        {
          "internalType": "bool",
          "name": "",
          "type": "bool"
        }
      ],
      "stateMutability": "view",
      "type": "function"
    },
    {
      "inputs": [],
      "name": "name",
      "outputs": [
        {
          "internalType": "string",
          "name": "",
          "type": "string"
        }
      ],
      "stateMutability": "view",
      "type": "function"
    },
    {
      "inputs": [
        {
          "internalType": "uint256",
          "name": "tokenId",
          "type": "uint256"
        }
      ],
      "name": "ownerOf",
      "outputs": [
        {
          "internalType": "address",
          "name": "",
          "type": "address"
        }
      ],
      "stateMutability": "view",
      "type": "function"
    },
    {
      "inputs": [
        {
          "internalType": "string",
          "name": "uri",
          "type": "string"
        },
        {
          "internalType": "address",
          "name": "to",
          "type": "address"
        }
      ],
      "name": "safeMint",
      "outputs": [
        {
          "internalType": "uint256",
          "name": "",
          "type": "uint256"
        }
      ],
      "stateMutability": "payable",
      "type": "function"
    },
    {
      "inputs": [
        {
          "internalType": "address",
          "name": "from",
          "type": "address"
        },
        {
          "internalType": "address",
          "name": "to",
          "type": "address"
        },
        {
          "internalType": "uint256",
          "name": "tokenId",
          "type": "uint256"
        }
      ],
      "name": "safeTransferFrom",
      "outputs": [],
      "stateMutability": "nonpayable",
      "type": "function"
    },
    {
      "inputs": [
        {
          "internalType": "address",
          "name": "from",
          "type": "address"
        },
        {
          "internalType": "address",
          "name": "to",
          "type": "address"
        },
        {
          "internalType": "uint256",
          "name": "tokenId",
          "type": "uint256"
        },
        {
          "internalType": "bytes",
          "name": "data",
          "type": "bytes"
        }
      ],
      "name": "safeTransferFrom",
      "outputs": [],
      "stateMutability": "nonpayable",
      "type": "function"
    },
    {
      "inputs": [
        {
          "internalType": "address",
          "name": "operator",
          "type": "address"
        },
        {
          "internalType": "bool",
          "name": "approved",
          "type": "bool"
        }
      ],
      "name": "setApprovalForAll",
      "outputs": [],
      "stateMutability": "nonpayable",
      "type": "function"
    },
    {
      "inputs": [
        {
          "internalType": "bytes4",
          "name": "interfaceId",
          "type": "bytes4"
        }
      ],
      "name": "supportsInterface",
      "outputs": [
        {
          "internalType": "bool",
          "name": "",
          "type": "bool"
        }
      ],
      "stateMutability": "view",
      "type": "function"
    },
    {
      "inputs": [],
      "name": "symbol",
      "outputs": [
        {
          "internalType": "string",
          "name": "",
          "type": "string"
        }
      ],
      "stateMutability": "view",
      "type": "function"
    },
    {
      "inputs": [
        {
          "internalType": "uint256",
          "name": "tokenId",
          "type": "uint256"
        }
      ],
      "name": "tokenURI",
      "outputs": [
        {
          "internalType": "string",
          "name": "",
          "type": "string"
        }
      ],
      "stateMutability": "view",
      "type": "function"
    },
    {
      "inputs": [
        {
          "internalType": "address",
          "name": "from",
          "type": "address"
        },
        {
          "internalType": "address",
          "name": "to",
          "type": "address"
        },
        {
          "internalType": "uint256",
          "name": "tokenId",
          "type": "uint256"
        }
      ],
      "name": "transferFrom",
      "outputs": [],
      "stateMutability": "nonpayable",
      "type": "function"
    }
  ],
  "bytecode": "0x60806040523480156200001157600080fd5b50604080518082018252600d8082526c15195cdd0810d85c9cc8139195609a1b602080840182905284518086019095529184529083015290600062000057838262000114565b50600162000066828262000114565b505050620001e0565b634e487b7160e01b600052604160045260246000fd5b600181811c908216806200009a57607f821691505b602082108103620000bb57634e487b7160e01b600052602260045260246000fd5b50919050565b601f8211156200010f57600081815260208120601f850160051c81016020861015620000ea5750805b601f850160051c820191505b818110156200010b57828155600101620000f6565b5050505b505050565b81516001600160401b038111156200013057620001306200006f565b620001488162000141845462000085565b84620000c1565b602080601f831160018114620001805760008415620001675750858301515b600019600386901b1c1916600185901b1785556200010b565b600085815260208120601f198616915b82811015620001b15788860151825594840194600190910190840162000190565b5085821015620001d05787850151600019600388901b60f8161c191681555b5050505050600190811b01905550565b61169e80620001f06000396000f3fe6080604052600436106100dd5760003560e01c806370a082311161007f578063b88d4fde11610059578063b88d4fde14610256578063c6f0577114610276578063c87b56dd14610289578063e985e9c5146102a957600080fd5b806370a08231146101f357806395d89b4114610221578063a22cb4651461023657600080fd5b8063095ea7b3116100bb578063095ea7b31461017157806323b872dd1461019357806342842e0e146101b35780636352211e146101d357600080fd5b806301ffc9a7146100e257806306fdde0314610117578063081812fc14610139575b600080fd5b3480156100ee57600080fd5b506101026100fd3660046110ad565b6102f2565b60405190151581526020015b60405180910390f35b34801561012357600080fd5b5061012c610344565b60405161010e919061111a565b34801561014557600080fd5b5061015961015436600461112d565b6103d6565b6040516001600160a01b03909116815260200161010e565b34801561017d57600080fd5b5061019161018c366004611162565b6103fd565b005b34801561019f57600080fd5b506101916101ae36600461118c565b610517565b3480156101bf57600080fd5b506101916101ce36600461118c565b610548565b3480156101df57600080fd5b506101596101ee36600461112d565b610563565b3480156101ff57600080fd5b5061021361020e3660046111c8565b6105c3565b60405190815260200161010e565b34801561022d57600080fd5b5061012c610649565b34801561024257600080fd5b506101916102513660046111e3565b610658565b34801561026257600080fd5b506101916102713660046112ab565b610667565b610213610284366004611327565b61069f565b34801561029557600080fd5b5061012c6102a436600461112d565b6106d7565b3480156102b557600080fd5b506101026102c4366004611389565b6001600160a01b03918216600090815260056020908152604080832093909416825291909152205460ff1690565b60006001600160e01b031982166380ac58cd60e01b148061032357506001600160e01b03198216635b5e139f60e01b145b8061033e57506301ffc9a760e01b6001600160e01b03198316145b92915050565b606060008054610353906113b3565b80601f016020809104026020016040519081016040528092919081815260200182805461037f906113b3565b80156103cc5780601f106103a1576101008083540402835291602001916103cc565b820191906000526020600020905b8154815290600101906020018083116103af57829003601f168201915b5050505050905090565b60006103e1826107e7565b506000908152600460205260409020546001600160a01b031690565b600061040882610563565b9050806001600160a01b0316836001600160a01b03160361047a5760405162461bcd60e51b815260206004820152602160248201527f4552433732313a20617070726f76616c20746f2063757272656e74206f776e656044820152603960f91b60648201526084015b60405180910390fd5b336001600160a01b0382161480610496575061049681336102c4565b6105085760405162461bcd60e51b815260206004820152603d60248201527f4552433732313a20617070726f76652063616c6c6572206973206e6f7420746f60448201527f6b656e206f776e6572206f7220617070726f76656420666f7220616c6c0000006064820152608401610471565b6105128383610849565b505050565b61052133826108b7565b61053d5760405162461bcd60e51b8152600401610471906113ed565b610512838383610935565b61051283838360405180602001604052806000815250610667565b6000818152600260205260408120546001600160a01b03168061033e5760405162461bcd60e51b8152602060048201526018602482015277115490cdcc8c4e881a5b9d985b1a59081d1bdad95b88125160421b6044820152606401610471565b60006001600160a01b03821661062d5760405162461bcd60e51b815260206004820152602960248201527f4552433732313a2061646472657373207a65726f206973206e6f7420612076616044820152683634b21037bbb732b960b91b6064820152608401610471565b506001600160a01b031660009081526003602052604090205490565b606060018054610353906113b3565b610663338383610a99565b5050565b61067133836108b7565b61068d5760405162461bcd60e51b8152600401610471906113ed565b61069984848484610b67565b50505050565b60006106af600780546001019055565b60006106ba60075490565b90506106c68382610b9a565b6106d08185610d25565b9392505050565b60606106e2826107e7565b600082815260066020526040812080546106fb906113b3565b80601f0160208091040260200160405190810160405280929190818152602001828054610727906113b3565b80156107745780601f1061074957610100808354040283529160200191610774565b820191906000526020600020905b81548152906001019060200180831161075757829003601f168201915b50505050509050600061079260408051602081019091526000815290565b905080516000036107a4575092915050565b8151156107d65780826040516020016107be92919061143a565b60405160208183030381529060405292505050919050565b6107df84610db8565b949350505050565b6000818152600260205260409020546001600160a01b03166108465760405162461bcd60e51b8152602060048201526018602482015277115490cdcc8c4e881a5b9d985b1a59081d1bdad95b88125160421b6044820152606401610471565b50565b600081815260046020526040902080546001600160a01b0319166001600160a01b038416908117909155819061087e82610563565b6001600160a01b03167f8c5be1e5ebec7d5bd14f71427d1e84f3dd0314c0f7b2291e5b200ac8c7c3b92560405160405180910390a45050565b6000806108c383610563565b9050806001600160a01b0316846001600160a01b0316148061090a57506001600160a01b0380821660009081526005602090815260408083209388168352929052205460ff165b806107df5750836001600160a01b0316610923846103d6565b6001600160a01b031614949350505050565b826001600160a01b031661094882610563565b6001600160a01b03161461096e5760405162461bcd60e51b815260040161047190611469565b6001600160a01b0382166109d05760405162461bcd60e51b8152602060048201526024808201527f4552433732313a207472616e7366657220746f20746865207a65726f206164646044820152637265737360e01b6064820152608401610471565b826001600160a01b03166109e382610563565b6001600160a01b031614610a095760405162461bcd60e51b815260040161047190611469565b600081815260046020908152604080832080546001600160a01b03199081169091556001600160a01b0387811680865260038552838620805460001901905590871680865283862080546001019055868652600290945282852080549092168417909155905184937fddf252ad1be2c89b69c2b068fc378daa952ba7f163c4a11628f55a4df523b3ef91a4505050565b816001600160a01b0316836001600160a01b031603610afa5760405162461bcd60e51b815260206004820152601960248201527f4552433732313a20617070726f766520746f2063616c6c6572000000000000006044820152606401610471565b6001600160a01b03838116600081815260056020908152604080832094871680845294825291829020805460ff191686151590811790915591519182527f17307eab39ab6107e8899845ad3d59bd9653f200f220920489ca2b5937696c31910160405180910390a3505050565b610b72848484610935565b610b7e84848484610e2b565b6106995760405162461bcd60e51b8152600401610471906114ae565b6001600160a01b038216610bf05760405162461bcd60e51b815260206004820181905260248201527f4552433732313a206d696e7420746f20746865207a65726f20616464726573736044820152606401610471565b6000818152600260205260409020546001600160a01b031615610c555760405162461bcd60e51b815260206004820152601c60248201527f4552433732313a20746f6b656e20616c7265616479206d696e746564000000006044820152606401610471565b6000818152600260205260409020546001600160a01b031615610cba5760405162461bcd60e51b815260206004820152601c60248201527f4552433732313a20746f6b656e20616c7265616479206d696e746564000000006044820152606401610471565b6001600160a01b038216600081815260036020908152604080832080546001019055848352600290915280822080546001600160a01b0319168417905551839291907fddf252ad1be2c89b69c2b068fc378daa952ba7f163c4a11628f55a4df523b3ef908290a45050565b6000828152600260205260409020546001600160a01b0316610da05760405162461bcd60e51b815260206004820152602e60248201527f45524337323155524953746f726167653a2055524920736574206f66206e6f6e60448201526d32bc34b9ba32b73a103a37b5b2b760911b6064820152608401610471565b6000828152600660205260409020610512828261154e565b6060610dc3826107e7565b6000610dda60408051602081019091526000815290565b90506000815111610dfa57604051806020016040528060008152506106d0565b80610e0484610f2c565b604051602001610e1592919061143a565b6040516020818303038152906040529392505050565b60006001600160a01b0384163b15610f2157604051630a85bd0160e11b81526001600160a01b0385169063150b7a0290610e6f90339089908890889060040161160e565b6020604051808303816000875af1925050508015610eaa575060408051601f3d908101601f19168201909252610ea79181019061164b565b60015b610f07573d808015610ed8576040519150601f19603f3d011682016040523d82523d6000602084013e610edd565b606091505b508051600003610eff5760405162461bcd60e51b8152600401610471906114ae565b805181602001fd5b6001600160e01b031916630a85bd0160e11b1490506107df565b506001949350505050565b60606000610f3983610fbf565b600101905060008167ffffffffffffffff811115610f5957610f5961121f565b6040519080825280601f01601f191660200182016040528015610f83576020820181803683370190505b5090508181016020015b600019016f181899199a1a9b1b9c1cb0b131b232b360811b600a86061a8153600a8504945084610f8d57509392505050565b60008072184f03e93ff9f4daa797ed6e38ed64bf6a1f0160401b8310610ffe5772184f03e93ff9f4daa797ed6e38ed64bf6a1f0160401b830492506040015b6d04ee2d6d415b85acef8100000000831061102a576d04ee2d6d415b85acef8100000000830492506020015b662386f26fc10000831061104857662386f26fc10000830492506010015b6305f5e1008310611060576305f5e100830492506008015b612710831061107457612710830492506004015b60648310611086576064830492506002015b600a831061033e5760010192915050565b6001600160e01b03198116811461084657600080fd5b6000602082840312156110bf57600080fd5b81356106d081611097565b60005b838110156110e55781810151838201526020016110cd565b50506000910152565b600081518084526111068160208601602086016110ca565b601f01601f19169290920160200192915050565b6020815260006106d060208301846110ee565b60006020828403121561113f57600080fd5b5035919050565b80356001600160a01b038116811461115d57600080fd5b919050565b6000806040838503121561117557600080fd5b61117e83611146565b946020939093013593505050565b6000806000606084860312156111a157600080fd5b6111aa84611146565b92506111b860208501611146565b9150604084013590509250925092565b6000602082840312156111da57600080fd5b6106d082611146565b600080604083850312156111f657600080fd5b6111ff83611146565b91506020830135801515811461121457600080fd5b809150509250929050565b634e487b7160e01b600052604160045260246000fd5b600067ffffffffffffffff808411156112505761125061121f565b604051601f8501601f19908116603f011681019082821181831017156112785761127861121f565b8160405280935085815286868601111561129157600080fd5b858560208301376000602087830101525050509392505050565b600080600080608085870312156112c157600080fd5b6112ca85611146565b93506112d860208601611146565b925060408501359150606085013567ffffffffffffffff8111156112fb57600080fd5b8501601f8101871361130c57600080fd5b61131b87823560208401611235565b91505092959194509250565b6000806040838503121561133a57600080fd5b823567ffffffffffffffff81111561135157600080fd5b8301601f8101851361136257600080fd5b61137185823560208401611235565b92505061138060208401611146565b90509250929050565b6000806040838503121561139c57600080fd5b6113a583611146565b915061138060208401611146565b600181811c908216806113c757607f821691505b6020821081036113e757634e487b7160e01b600052602260045260246000fd5b50919050565b6020808252602d908201527f4552433732313a2063616c6c6572206973206e6f7420746f6b656e206f776e6560408201526c1c881bdc88185c1c1c9bdd9959609a1b606082015260800190565b6000835161144c8184602088016110ca565b8351908301906114608183602088016110ca565b01949350505050565b60208082526025908201527f4552433732313a207472616e736665722066726f6d20696e636f72726563742060408201526437bbb732b960d91b606082015260800190565b60208082526032908201527f4552433732313a207472616e7366657220746f206e6f6e20455243373231526560408201527131b2b4bb32b91034b6b83632b6b2b73a32b960711b606082015260800190565b601f82111561051257600081815260208120601f850160051c810160208610156115275750805b601f850160051c820191505b8181101561154657828155600101611533565b505050505050565b815167ffffffffffffffff8111156115685761156861121f565b61157c8161157684546113b3565b84611500565b602080601f8311600181146115b157600084156115995750858301515b600019600386901b1c1916600185901b178555611546565b600085815260208120601f198616915b828110156115e0578886015182559484019460019091019084016115c1565b50858210156115fe5787850151600019600388901b60f8161c191681555b5050505050600190811b01905550565b6001600160a01b0385811682528416602082015260408101839052608060608201819052600090611641908301846110ee565b9695505050505050565b60006020828403121561165d57600080fd5b81516106d08161109756fea264697066735822122093b0c8e4bdf2ac705805d0b4fbf5c750cdc8f2ae0e45d8f1c9e5dba6d106ac6564736f6c63430008100033",
  "linkReferences": {},
  "deployedLinkReferences": {}
}